{"abi":[{"inputs":[{"internalType":"string","name":"_cid","type":"string"},{"internalType":"string","name":"_date","type":"string"},{"internalType":"uint256","name":"_year","type":"uint256"},{"internalType":"address","name":"_manager","type":"address"},{"internalType":"string","name":"_name","type":"string"}],"stateMutability":"nonpayable","type":"constructor"},{"inputs":[{"internalType":"string","name":"","type":"string"}],"name":"approved","outputs":[{"internalType":"bool","name":"","type":"bool"}],"stateMutability":"view","type":"function"},{"inputs":[],"name":"authorizationCount","outputs":[{"internalType":"uint256","name":"","type":"uint256"}],"stateMutability":"view","type":"function"},{"inputs":[{"internalType":"string","name":"authString","type":"string"}],"name":"authorize","outputs":[],"stateMutability":"nonpayable","type":"function"},{"inputs":[],"name":"date","outputs":[{"internalType":"string","name":"","type":"string"}],"stateMutability":"view","type":"function"},{"inputs":[],"name":"getCid","outputs":[{"internalType":"string","name":"","type":"string"}],"stateMutability":"view","type":"function"},{"inputs":[],"name":"getDetails","outputs":[{"internalType":"string","name":"","type":"string"},{"internalType":"uint256","name":"","type":"uint256"},{"internalType":"address","name":"","type":"address"},{"internalType":"string","name":"","type":"string"},{"internalType":"uint256","name":"","type":"uint256"}],"stateMutability":"view","type":"function"},{"inputs":[{"internalType":"string","name":"authString","type":"string"}],"name":"isApproved","outputs":[{"internalType":"bool","name":"","type":"bool"}],"stateMutability":"view","type":"function"},{"inputs":[],"name":"isDeleted","outputs":[{"internalType":"bool","name":"","type":"bool"}],"stateMutability":"view","type":"function"},{"inputs":[],"name":"manager","outputs":[{"internalType":"address","name":"","type":"address"}],"stateMutability":"view","type":"function"},{"inputs":[],"name":"name","outputs":[{"internalType":"string","name":"","type":"string"}],"stateMutability":"view","type":"function"},{"inputs":[{"internalType":"bool","name":"_isDeleted","type":"bool"}],"name":"setDeleted","outputs":[],"stateMutability":"nonpayable","type":"function"},{"inputs":[],"name":"year","outputs":[{"internalType":"uint256","name":"","type":"uint256"}],"stateMutability":"view","type":"function"}],"evm":{"bytecode":{"linkReferences":{},"object":"608060405234801561000f575f5ffd5b50604051611431380380611431833981810160405281019061003191906102ac565b845f908161003f919061057e565b50836001908161004f919061057e565b50826002819055508160035f6101000a81548173ffffffffffffffffffffffffffffffffffffffff021916908373ffffffffffffffffffffffffffffffffffffffff16021790555080600490816100a6919061057e565b505f600360146101000a81548160ff0219169083151502179055505f600681905550505050505061064d565b5f604051905090565b5f5ffd5b5f5ffd5b5f5ffd5b5f5ffd5b5f601f19601f8301169050919050565b7f4e487b71000000000000000000000000000000000000000000000000000000005f52604160045260245ffd5b610131826100eb565b810181811067ffffffffffffffff821117156101505761014f6100fb565b5b80604052505050565b5f6101626100d2565b905061016e8282610128565b919050565b5f67ffffffffffffffff82111561018d5761018c6100fb565b5b610196826100eb565b9050602081019050919050565b8281835e5f83830152505050565b5f6101c36101be84610173565b610159565b9050828152602081018484840111156101df576101de6100e7565b5b6101ea8482856101a3565b509392505050565b5f82601f830112610206576102056100e3565b5b81516102168482602086016101b1565b91505092915050565b5f819050919050565b6102318161021f565b811461023b575f5ffd5b50565b5f8151905061024c81610228565b92915050565b5f73ffffffffffffffffffffffffffffffffffffffff82169050919050565b5f61027b82610252565b9050919050565b61028b81610271565b8114610295575f5ffd5b50565b5f815190506102a681610282565b92915050565b5f5f5f5f5f60a086880312156102c5576102c46100db565b5b5f86015167ffffffffffffffff8111156102e2576102e16100df565b5b6102ee888289016101f2565b955050602086015167ffffffffffffffff81111561030f5761030e6100df565b5b61031b888289016101f2565b945050604061032c8882890161023e565b935050606061033d88828901610298565b925050608086015167ffffffffffffffff81111561035e5761035d6100df565b5b61036a888289016101f2565b9150509295509295909350565b5f81519050919050565b7f4e487b71000000000000000000000000000000000000000000000000000000005f52602260045260245ffd5b5f60028204905060018216806103c557607f821691505b6020821081036103d8576103d7610381565b5b50919050565b5f819050815f5260205f209050919050565b5f6020601f8301049050919050565b5f82821b905092915050565b5f6008830261043a7fffffffffffffffffffffffffffffffffffffffffffffffffffffffffffffffff826103ff565b61044486836103ff565b95508019841693508086168417925050509392505050565b5f819050919050565b5f61047f61047a6104758461021f565b61045c565b61021f565b9050919050565b5f819050919050565b61049883610465565b6104ac6104a482610486565b84845461040b565b825550505050565b5f5f905090565b6104c36104b4565b6104ce81848461048f565b505050565b5b818110156104f1576104e65f826104bb565b6001810190506104d4565b5050565b601f82111561053657610507816103de565b610510846103f0565b8101602085101561051f578190505b61053361052b856103f0565b8301826104d3565b50505b505050565b5f82821c905092915050565b5f6105565f198460080261053b565b1980831691505092915050565b5f61056e8383610547565b9150826002028217905092915050565b61058782610377565b67ffffffffffffffff8111156105a05761059f6100fb565b5b6105aa82546103ae565b6105b58282856104f5565b5f60209050601f8311600181146105e6575f84156105d4578287015190505b6105de8582610563565b865550610645565b601f1984166105f4866103de565b5f5b8281101561061b578489015182556001820191506020850194506020810190506105f6565b868310156106385784890151610634601f891682610547565b8355505b6001600288020188555050505b505050505050565b610dd78061065a5f395ff3fe608060405234801561000f575f5ffd5b50600436106100b2575f3560e01c8063ca00c7021161006f578063ca00c70214610166578063d7efb6b714610184578063f31fbc9f146101a2578063f3269716146101d2578063fa322eb2146101f0578063fbbf93a014610220576100b2565b806306fdde03146100b65780630ab89cc2146100d45780632e783bb9146100f0578063323046b11461010e578063481c6a751461012c5780634f5fcb341461014a575b5f5ffd5b6100be610242565b6040516100cb919061088a565b60405180910390f35b6100ee60048036038101906100e991906108f0565b6102ce565b005b6100f861037a565b6040516101059190610933565b60405180910390f35b610116610380565b604051610123919061088a565b60405180910390f35b61013461040c565b604051610141919061098b565b60405180910390f35b610164600480360381019061015f9190610ad0565b610431565b005b61016e610562565b60405161017b919061088a565b60405180910390f35b61018c6105f1565b6040516101999190610b26565b60405180910390f35b6101bc60048036038101906101b79190610ad0565b610604565b6040516101c99190610b26565b60405180910390f35b6101da610687565b6040516101e79190610933565b60405180910390f35b61020a60048036038101906102059190610ad0565b61068d565b6040516102179190610b26565b60405180910390f35b6102286106c2565b604051610239959493929190610b3f565b60405180910390f35b6004805461024f90610bcb565b80601f016020809104026020016040519081016040528092919081815260200182805461027b90610bcb565b80156102c65780601f1061029d576101008083540402835291602001916102c6565b820191905f5260205f20905b8154815290600101906020018083116102a957829003601f168201915b505050505081565b60035f9054906101000a900473ffffffffffffffffffffffffffffffffffffffff1673ffffffffffffffffffffffffffffffffffffffff163373ffffffffffffffffffffffffffffffffffffffff161461035d576040517f08c379a000000000000000000000000000000000000000000000000000000000815260040161035490610c6b565b60405180910390fd5b80600360146101000a81548160ff02191690831515021790555050565b60065481565b6001805461038d90610bcb565b80601f01602080910402602001604051908101604052809291908181526020018280546103b990610bcb565b80156104045780601f106103db57610100808354040283529160200191610404565b820191905f5260205f20905b8154815290600101906020018083116103e757829003601f168201915b505050505081565b60035f9054906101000a900473ffffffffffffffffffffffffffffffffffffffff1681565b60035f9054906101000a900473ffffffffffffffffffffffffffffffffffffffff1673ffffffffffffffffffffffffffffffffffffffff163373ffffffffffffffffffffffffffffffffffffffff16146104c0576040517f08c379a00000000000000000000000000000000000000000000000000000000081526004016104b790610c6b565b60405180910390fd5b600360149054906101000a900460ff1615610510576040517f08c379a000000000000000000000000000000000000000000000000000000000815260040161050790610cd3565b60405180910390fd5b60016005826040516105229190610d2b565b90815260200160405180910390205f6101000a81548160ff021916908315150217905550600160065f8282546105589190610d6e565b9250508190555050565b60605f805461057090610bcb565b80601f016020809104026020016040519081016040528092919081815260200182805461059c90610bcb565b80156105e75780601f106105be576101008083540402835291602001916105e7565b820191905f5260205f20905b8154815290600101906020018083116105ca57829003601f168201915b5050505050905090565b600360149054906101000a900460ff1681565b5f600360149054906101000a900460ff1615610655576040517f08c379a000000000000000000000000000000000000000000000000000000000815260040161064c90610cd3565b60405180910390fd5b6005826040516106659190610d2b565b90815260200160405180910390205f9054906101000a900460ff169050919050565b60025481565b6005818051602081018201805184825260208301602085012081835280955050505050505f915054906101000a900460ff1681565b60605f5f60605f600160025460035f9054906101000a900473ffffffffffffffffffffffffffffffffffffffff16600460065484805461070190610bcb565b80601f016020809104026020016040519081016040528092919081815260200182805461072d90610bcb565b80156107785780601f1061074f57610100808354040283529160200191610778565b820191905f5260205f20905b81548152906001019060200180831161075b57829003601f168201915b5050505050945081805461078b90610bcb565b80601f01602080910402602001604051908101604052809291908181526020018280546107b790610bcb565b80156108025780601f106107d957610100808354040283529160200191610802565b820191905f5260205f20905b8154815290600101906020018083116107e557829003601f168201915b50505050509150945094509450945094509091929394565b5f81519050919050565b5f82825260208201905092915050565b8281835e5f83830152505050565b5f601f19601f8301169050919050565b5f61085c8261081a565b6108668185610824565b9350610876818560208601610834565b61087f81610842565b840191505092915050565b5f6020820190508181035f8301526108a28184610852565b905092915050565b5f604051905090565b5f5ffd5b5f5ffd5b5f8115159050919050565b6108cf816108bb565b81146108d9575f5ffd5b50565b5f813590506108ea816108c6565b92915050565b5f60208284031215610905576109046108b3565b5b5f610912848285016108dc565b91505092915050565b5f819050919050565b61092d8161091b565b82525050565b5f6020820190506109465f830184610924565b92915050565b5f73ffffffffffffffffffffffffffffffffffffffff82169050919050565b5f6109758261094c565b9050919050565b6109858161096b565b82525050565b5f60208201905061099e5f83018461097c565b92915050565b5f5ffd5b5f5ffd5b7f4e487b71000000000000000000000000000000000000000000000000000000005f52604160045260245ffd5b6109e282610842565b810181811067ffffffffffffffff82111715610a0157610a006109ac565b5b80604052505050565b5f610a136108aa565b9050610a1f82826109d9565b919050565b5f67ffffffffffffffff821115610a3e57610a3d6109ac565b5b610a4782610842565b9050602081019050919050565b828183375f83830152505050565b5f610a74610a6f84610a24565b610a0a565b905082815260208101848484011115610a9057610a8f6109a8565b5b610a9b848285610a54565b509392505050565b5f82601f830112610ab757610ab66109a4565b5b8135610ac7848260208601610a62565b91505092915050565b5f60208284031215610ae557610ae46108b3565b5b5f82013567ffffffffffffffff811115610b0257610b016108b7565b5b610b0e84828501610aa3565b91505092915050565b610b20816108bb565b82525050565b5f602082019050610b395f830184610b17565b92915050565b5f60a0820190508181035f830152610b578188610852565b9050610b666020830187610924565b610b73604083018661097c565b8181036060830152610b858185610852565b9050610b946080830184610924565b9695505050505050565b7f4e487b71000000000000000000000000000000000000000000000000000000005f52602260045260245ffd5b5f6002820490506001821680610be257607f821691505b602082108103610bf557610bf4610b9e565b5b50919050565b7f4f6e6c7920746865206d616e616765722063616e2063616c6c207468697320665f8201527f756e6374696f6e00000000000000000000000000000000000000000000000000602082015250565b5f610c55602783610824565b9150610c6082610bfb565b604082019050919050565b5f6020820190508181035f830152610c8281610c49565b9050919050565b7f436f6e747261637420686173206265656e2064656c65746564000000000000005f82015250565b5f610cbd601983610824565b9150610cc882610c89565b602082019050919050565b5f6020820190508181035f830152610cea81610cb1565b9050919050565b5f81905092915050565b5f610d058261081a565b610d0f8185610cf1565b9350610d1f818560208601610834565b80840191505092915050565b5f610d368284610cfb565b915081905092915050565b7f4e487b71000000000000000000000000000000000000000000000000000000005f52601160045260245ffd5b5f610d788261091b565b9150610d838361091b565b9250828201905080821115610d9b57610d9a610d41565b5b9291505056fea2646970667358221220f77fea3b3bdf6c6abacc640e6d0a7a9ce01113d074a42bb2a4b13f33ede523e764736f6c634300081b0033","opcodes":"PUSH1 0x80 PUSH1 0x40 MSTORE CALLVALUE DUP1 ISZERO PUSH2 0xF JUMPI PUSH0 PUSH0 REVERT JUMPDEST POP PUSH1 0x40 MLOAD PUSH2 0x1431 CODESIZE SUB DUP1 PUSH2 0x1431 DUP4 CODECOPY DUP2 DUP2 ADD PUSH1 0x40 MSTORE DUP2 ADD SWAP1 PUSH2 0x31 SWAP2 SWAP1 PUSH2 0x2AC JUMP JUMPDEST DUP5 PUSH0 SWAP1 DUP2 PUSH2 0x3F SWAP2 SWAP1 PUSH2 0x57E JUMP JUMPDEST POP DUP4 PUSH1 0x1 SWAP1 DUP2 PUSH2 0x4F SWAP2 SWAP1 PUSH2 0x57E JUMP JUMPDEST POP DUP3 PUSH1 0x2 DUP2 SWAP1 SSTORE POP DUP2 PUSH1 0x3 PUSH0 PUSH2 0x100 EXP DUP2 SLOAD DUP2 PUSH20 0xFFFFFFFFFFFFFFFFFFFFFFFFFFFFFFFFFFFFFFFF MUL NOT AND SWAP1 DUP4 PUSH20 0xFFFFFFFFFFFFFFFFFFFFFFFFFFFFFFFFFFFFFFFF AND MUL OR SWAP1 SSTORE POP DUP1 PUSH1 0x4 SWAP1 DUP2 PUSH2 0xA6 SWAP2 SWAP1 PUSH2 0x57E JUMP JUMPDEST POP PUSH0 PUSH1 0x3 PUSH1 0x14 PUSH2 0x100 EXP DUP2 SLOAD DUP2 PUSH1 0xFF MUL NOT AND SWAP1 DUP4 ISZERO ISZERO MUL OR SWAP1 SSTORE POP PUSH0 PUSH1 0x6 DUP2 SWAP1 SSTORE POP POP POP POP POP POP PUSH2 0x64D JUMP JUMPDEST PUSH0 PUSH1 0x40 MLOAD SWAP1 POP SWAP1 JUMP JUMPDEST PUSH0 PUSH0 REVERT JUMPDEST PUSH0 PUSH0 REVERT JUMPDEST PUSH0 PUSH0 REVERT JUMPDEST PUSH0 PUSH0 REVERT JUMPDEST PUSH0 PUSH1 0x1F NOT PUSH1 0x1F DUP4 ADD AND SWAP1 POP SWAP2 SWAP1 POP JUMP JUMPDEST PUSH32 0x4E487B7100000000000000000000000000000000000000000000000000000000 PUSH0 MSTORE PUSH1 0x41 PUSH1 0x4 MSTORE PUSH1 0x24 PUSH0 REVERT JUMPDEST PUSH2 0x131 DUP3 PUSH2 0xEB JUMP JUMPDEST DUP2 ADD DUP2 DUP2 LT PUSH8 0xFFFFFFFFFFFFFFFF DUP3 GT OR ISZERO PUSH2 0x150 JUMPI PUSH2 0x14F PUSH2 0xFB JUMP JUMPDEST JUMPDEST DUP1 PUSH1 0x40 MSTORE POP POP POP JUMP JUMPDEST PUSH0 PUSH2 0x162 PUSH2 0xD2 JUMP JUMPDEST SWAP1 POP PUSH2 0x16E DUP3 DUP3 PUSH2 0x128 JUMP JUMPDEST SWAP2 SWAP1 POP JUMP JUMPDEST PUSH0 PUSH8 0xFFFFFFFFFFFFFFFF DUP3 GT ISZERO PUSH2 0x18D JUMPI PUSH2 0x18C PUSH2 0xFB JUMP JUMPDEST JUMPDEST PUSH2 0x196 DUP3 PUSH2 0xEB JUMP JUMPDEST SWAP1 POP PUSH1 0x20 DUP2 ADD SWAP1 POP SWAP2 SWAP1 POP JUMP JUMPDEST DUP3 DUP2 DUP4 MCOPY PUSH0 DUP4 DUP4 ADD MSTORE POP POP POP JUMP JUMPDEST PUSH0 PUSH2 0x1C3 PUSH2 0x1BE DUP5 PUSH2 0x173 JUMP JUMPDEST PUSH2 0x159 JUMP JUMPDEST SWAP1 POP DUP3 DUP2 MSTORE PUSH1 0x20 DUP2 ADD DUP5 DUP5 DUP5 ADD GT ISZERO PUSH2 0x1DF JUMPI PUSH2 0x1DE PUSH2 0xE7 JUMP JUMPDEST JUMPDEST PUSH2 0x1EA DUP5 DUP3 DUP6 PUSH2 0x1A3 JUMP JUMPDEST POP SWAP4 SWAP3 POP POP POP JUMP JUMPDEST PUSH0 DUP3 PUSH1 0x1F DUP4 ADD SLT PUSH2 0x206 JUMPI PUSH2 0x205 PUSH2 0xE3 JUMP JUMPDEST JUMPDEST DUP2 MLOAD PUSH2 0x216 DUP5 DUP3 PUSH1 0x20 DUP7 ADD PUSH2 0x1B1 JUMP JUMPDEST SWAP2 POP POP SWAP3 SWAP2 POP POP JUMP JUMPDEST PUSH0 DUP2 SWAP1 POP SWAP2 SWAP1 POP JUMP JUMPDEST PUSH2 0x231 DUP2 PUSH2 0x21F JUMP JUMPDEST DUP2 EQ PUSH2 0x23B JUMPI PUSH0 PUSH0 REVERT JUMPDEST POP JUMP JUMPDEST PUSH0 DUP2 MLOAD SWAP1 POP PUSH2 0x24C DUP2 PUSH2 0x228 JUMP JUMPDEST SWAP3 SWAP2 POP POP JUMP JUMPDEST PUSH0 PUSH20 0xFFFFFFFFFFFFFFFFFFFFFFFFFFFFFFFFFFFFFFFF DUP3 AND SWAP1 POP SWAP2 SWAP1 POP JUMP JUMPDEST PUSH0 PUSH2 0x27B DUP3 PUSH2 0x252 JUMP JUMPDEST SWAP1 POP SWAP2 SWAP1 POP JUMP JUMPDEST PUSH2 0x28B DUP2 PUSH2 0x271 JUMP JUMPDEST DUP2 EQ PUSH2 0x295 JUMPI PUSH0 PUSH0 REVERT JUMPDEST POP JUMP JUMPDEST PUSH0 DUP2 MLOAD SWAP1 POP PUSH2 0x2A6 DUP2 PUSH2 0x282 JUMP JUMPDEST SWAP3 SWAP2 POP POP JUMP JUMPDEST PUSH0 PUSH0 PUSH0 PUSH0 PUSH0 PUSH1 0xA0 DUP7 DUP9 SUB SLT ISZERO PUSH2 0x2C5 JUMPI PUSH2 0x2C4 PUSH2 0xDB JUMP JUMPDEST JUMPDEST PUSH0 DUP7 ADD MLOAD PUSH8 0xFFFFFFFFFFFFFFFF DUP2 GT ISZERO PUSH2 0x2E2 JUMPI PUSH2 0x2E1 PUSH2 0xDF JUMP JUMPDEST JUMPDEST PUSH2 0x2EE DUP9 DUP3 DUP10 ADD PUSH2 0x1F2 JUMP JUMPDEST SWAP6 POP POP PUSH1 0x20 DUP7 ADD MLOAD PUSH8 0xFFFFFFFFFFFFFFFF DUP2 GT ISZERO PUSH2 0x30F JUMPI PUSH2 0x30E PUSH2 0xDF JUMP JUMPDEST JUMPDEST PUSH2 0x31B DUP9 DUP3 DUP10 ADD PUSH2 0x1F2 JUMP JUMPDEST SWAP5 POP POP PUSH1 0x40 PUSH2 0x32C DUP9 DUP3 DUP10 ADD PUSH2 0x23E JUMP JUMPDEST SWAP4 POP POP PUSH1 0x60 PUSH2 0x33D DUP9 DUP3 DUP10 ADD PUSH2 0x298 JUMP JUMPDEST SWAP3 POP POP PUSH1 0x80 DUP7 ADD MLOAD PUSH8 0xFFFFFFFFFFFFFFFF DUP2 GT ISZERO PUSH2 0x35E JUMPI PUSH2 0x35D PUSH2 0xDF JUMP JUMPDEST JUMPDEST PUSH2 0x36A DUP9 DUP3 DUP10 ADD PUSH2 0x1F2 JUMP JUMPDEST SWAP2 POP POP SWAP3 SWAP6 POP SWAP3 SWAP6 SWAP1 SWAP4 POP JUMP JUMPDEST PUSH0 DUP2 MLOAD SWAP1 POP SWAP2 SWAP1 POP JUMP JUMPDEST PUSH32 0x4E487B7100000000000000000000000000000000000000000000000000000000 PUSH0 MSTORE PUSH1 0x22 PUSH1 0x4 MSTORE PUSH1 0x24 PUSH0 REVERT JUMPDEST PUSH0 PUSH1 0x2 DUP3 DIV SWAP1 POP PUSH1 0x1 DUP3 AND DUP1 PUSH2 0x3C5 JUMPI PUSH1 0x7F DUP3 AND SWAP2 POP JUMPDEST PUSH1 0x20 DUP3 LT DUP2 SUB PUSH2 0x3D8 JUMPI PUSH2 0x3D7 PUSH2 0x381 JUMP JUMPDEST JUMPDEST POP SWAP2 SWAP1 POP JUMP JUMPDEST PUSH0 DUP2 SWAP1 POP DUP2 PUSH0 MSTORE PUSH1 0x20 PUSH0 KECCAK256 SWAP1 POP SWAP2 SWAP1 POP JUMP JUMPDEST PUSH0 PUSH1 0x20 PUSH1 0x1F DUP4 ADD DIV SWAP1 POP SWAP2 SWAP1 POP JUMP JUMPDEST PUSH0 DUP3 DUP3 SHL SWAP1 POP SWAP3 SWAP2 POP POP JUMP JUMPDEST PUSH0 PUSH1 0x8 DUP4 MUL PUSH2 0x43A PUSH32 0xFFFFFFFFFFFFFFFFFFFFFFFFFFFFFFFFFFFFFFFFFFFFFFFFFFFFFFFFFFFFFFFF DUP3 PUSH2 0x3FF JUMP JUMPDEST PUSH2 0x444 DUP7 DUP4 PUSH2 0x3FF JUMP JUMPDEST SWAP6 POP DUP1 NOT DUP5 AND SWAP4 POP DUP1 DUP7 AND DUP5 OR SWAP3 POP POP POP SWAP4 SWAP3 POP POP POP JUMP JUMPDEST PUSH0 DUP2 SWAP1 POP SWAP2 SWAP1 POP JUMP JUMPDEST PUSH0 PUSH2 0x47F PUSH2 0x47A PUSH2 0x475 DUP5 PUSH2 0x21F JUMP JUMPDEST PUSH2 0x45C JUMP JUMPDEST PUSH2 0x21F JUMP JUMPDEST SWAP1 POP SWAP2 SWAP1 POP JUMP JUMPDEST PUSH0 DUP2 SWAP1 POP SWAP2 SWAP1 POP JUMP JUMPDEST PUSH2 0x498 DUP4 PUSH2 0x465 JUMP JUMPDEST PUSH2 0x4AC PUSH2 0x4A4 DUP3 PUSH2 0x486 JUMP JUMPDEST DUP5 DUP5 SLOAD PUSH2 0x40B JUMP JUMPDEST DUP3 SSTORE POP POP POP POP JUMP JUMPDEST PUSH0 PUSH0 SWAP1 POP SWAP1 JUMP JUMPDEST PUSH2 0x4C3 PUSH2 0x4B4 JUMP JUMPDEST PUSH2 0x4CE DUP2 DUP5 DUP5 PUSH2 0x48F JUMP JUMPDEST POP POP POP JUMP JUMPDEST JUMPDEST DUP2 DUP2 LT ISZERO PUSH2 0x4F1 JUMPI PUSH2 0x4E6 PUSH0 DUP3 PUSH2 0x4BB JUMP JUMPDEST PUSH1 0x1 DUP2 ADD SWAP1 POP PUSH2 0x4D4 JUMP JUMPDEST POP POP JUMP JUMPDEST PUSH1 0x1F DUP3 GT ISZERO PUSH2 0x536 JUMPI PUSH2 0x507 DUP2 PUSH2 0x3DE JUMP JUMPDEST PUSH2 0x510 DUP5 PUSH2 0x3F0 JUMP JUMPDEST DUP2 ADD PUSH1 0x20 DUP6 LT ISZERO PUSH2 0x51F JUMPI DUP2 SWAP1 POP JUMPDEST PUSH2 0x533 PUSH2 0x52B DUP6 PUSH2 0x3F0 JUMP JUMPDEST DUP4 ADD DUP3 PUSH2 0x4D3 JUMP JUMPDEST POP POP JUMPDEST POP POP POP JUMP JUMPDEST PUSH0 DUP3 DUP3 SHR SWAP1 POP SWAP3 SWAP2 POP POP JUMP JUMPDEST PUSH0 PUSH2 0x556 PUSH0 NOT DUP5 PUSH1 0x8 MUL PUSH2 0x53B JUMP JUMPDEST NOT DUP1 DUP4 AND SWAP2 POP POP SWAP3 SWAP2 POP POP JUMP JUMPDEST PUSH0 PUSH2 0x56E DUP4 DUP4 PUSH2 0x547 JUMP JUMPDEST SWAP2 POP DUP3 PUSH1 0x2 MUL DUP3 OR SWAP1 POP SWAP3 SWAP2 POP POP JUMP JUMPDEST PUSH2 0x587 DUP3 PUSH2 0x377 JUMP JUMPDEST PUSH8 0xFFFFFFFFFFFFFFFF DUP2 GT ISZERO PUSH2 0x5A0 JUMPI PUSH2 0x59F PUSH2 0xFB JUMP JUMPDEST JUMPDEST PUSH2 0x5AA DUP3 SLOAD PUSH2 0x3AE JUMP JUMPDEST PUSH2 0x5B5 DUP3 DUP3 DUP6 PUSH2 0x4F5 JUMP JUMPDEST PUSH0 PUSH1 0x20 SWAP1 POP PUSH1 0x1F DUP4 GT PUSH1 0x1 DUP2 EQ PUSH2 0x5E6 JUMPI PUSH0 DUP5 ISZERO PUSH2 0x5D4 JUMPI DUP3 DUP8 ADD MLOAD SWAP1 POP JUMPDEST PUSH2 0x5DE DUP6 DUP3 PUSH2 0x563 JUMP JUMPDEST DUP7 SSTORE POP PUSH2 0x645 JUMP JUMPDEST PUSH1 0x1F NOT DUP5 AND PUSH2 0x5F4 DUP7 PUSH2 0x3DE JUMP JUMPDEST PUSH0 JUMPDEST DUP3 DUP2 LT ISZERO PUSH2 0x61B JUMPI DUP5 DUP10 ADD MLOAD DUP3 SSTORE PUSH1 0x1 DUP3 ADD SWAP2 POP PUSH1 0x20 DUP6 ADD SWAP5 POP PUSH1 0x20 DUP2 ADD SWAP1 POP PUSH2 0x5F6 JUMP JUMPDEST DUP7 DUP4 LT ISZERO PUSH2 0x638 JUMPI DUP5 DUP10 ADD MLOAD PUSH2 0x634 PUSH1 0x1F DUP10 AND DUP3 PUSH2 0x547 JUMP JUMPDEST DUP4 SSTORE POP JUMPDEST PUSH1 0x1 PUSH1 0x2 DUP9 MUL ADD DUP9 SSTORE POP POP POP JUMPDEST POP POP POP POP POP POP JUMP JUMPDEST PUSH2 0xDD7 DUP1 PUSH2 0x65A PUSH0 CODECOPY PUSH0 RETURN INVALID PUSH1 0x80 PUSH1 0x40 MSTORE CALLVALUE DUP1 ISZERO PUSH2 0xF JUMPI PUSH0 PUSH0 REVERT JUMPDEST POP PUSH1 0x4 CALLDATASIZE LT PUSH2 0xB2 JUMPI PUSH0 CALLDATALOAD PUSH1 0xE0 SHR DUP1 PUSH4 0xCA00C702 GT PUSH2 0x6F JUMPI DUP1 PUSH4 0xCA00C702 EQ PUSH2 0x166 JUMPI DUP1 PUSH4 0xD7EFB6B7 EQ PUSH2 0x184 JUMPI DUP1 PUSH4 0xF31FBC9F EQ PUSH2 0x1A2 JUMPI DUP1 PUSH4 0xF3269716 EQ PUSH2 0x1D2 JUMPI DUP1 PUSH4 0xFA322EB2 EQ PUSH2 0x1F0 JUMPI DUP1 PUSH4 0xFBBF93A0 EQ PUSH2 0x220 JUMPI PUSH2 0xB2 JUMP JUMPDEST DUP1 PUSH4 0x6FDDE03 EQ PUSH2 0xB6 JUMPI DUP1 PUSH4 0xAB89CC2 EQ PUSH2 0xD4 JUMPI DUP1 PUSH4 0x2E783BB9 EQ PUSH2 0xF0 JUMPI DUP1 PUSH4 0x323046B1 EQ PUSH2 0x10E JUMPI DUP1 PUSH4 0x481C6A75 EQ PUSH2 0x12C JUMPI DUP1 PUSH4 0x4F5FCB34 EQ PUSH2 0x14A JUMPI JUMPDEST PUSH0 PUSH0 REVERT JUMPDEST PUSH2 0xBE PUSH2 0x242 JUMP JUMPDEST PUSH1 0x40 MLOAD PUSH2 0xCB SWAP2 SWAP1 PUSH2 0x88A JUMP JUMPDEST PUSH1 0x40 MLOAD DUP1 SWAP2 SUB SWAP1 RETURN JUMPDEST PUSH2 0xEE PUSH1 0x4 DUP1 CALLDATASIZE SUB DUP2 ADD SWAP1 PUSH2 0xE9 SWAP2 SWAP1 PUSH2 0x8F0 JUMP JUMPDEST PUSH2 0x2CE JUMP JUMPDEST STOP JUMPDEST PUSH2 0xF8 PUSH2 0x37A JUMP JUMPDEST PUSH1 0x40 MLOAD PUSH2 0x105 SWAP2 SWAP1 PUSH2 0x933 JUMP JUMPDEST PUSH1 0x40 MLOAD DUP1 SWAP2 SUB SWAP1 RETURN JUMPDEST PUSH2 0x116 PUSH2 0x380 JUMP JUMPDEST PUSH1 0x40 MLOAD PUSH2 0x123 SWAP2 SWAP1 PUSH2 0x88A JUMP JUMPDEST PUSH1 0x40 MLOAD DUP1 SWAP2 SUB SWAP1 RETURN JUMPDEST PUSH2 0x134 PUSH2 0x40C JUMP JUMPDEST PUSH1 0x40 MLOAD PUSH2 0x141 SWAP2 SWAP1 PUSH2 0x98B JUMP JUMPDEST PUSH1 0x40 MLOAD DUP1 SWAP2 SUB SWAP1 RETURN JUMPDEST PUSH2 0x164 PUSH1 0x4 DUP1 CALLDATASIZE SUB DUP2 ADD SWAP1 PUSH2 0x15F SWAP2 SWAP1 PUSH2 0xAD0 JUMP JUMPDEST PUSH2 0x431 JUMP JUMPDEST STOP JUMPDEST PUSH2 0x16E PUSH2 0x562 JUMP JUMPDEST PUSH1 0x40 MLOAD PUSH2 0x17B SWAP2 SWAP1 PUSH2 0x88A JUMP JUMPDEST PUSH1 0x40 MLOAD DUP1 SWAP2 SUB SWAP1 RETURN JUMPDEST PUSH2 0x18C PUSH2 0x5F1 JUMP JUMPDEST PUSH1 0x40 MLOAD PUSH2 0x199 SWAP2 SWAP1 PUSH2 0xB26 JUMP JUMPDEST PUSH1 0x40 MLOAD DUP1 SWAP2 SUB SWAP1 RETURN JUMPDEST PUSH2 0x1BC PUSH1 0x4 DUP1 CALLDATASIZE SUB DUP2 ADD SWAP1 PUSH2 0x1B7 SWAP2 SWAP1 PUSH2 0xAD0 JUMP JUMPDEST PUSH2 0x604 JUMP JUMPDEST PUSH1 0x40 MLOAD PUSH2 0x1C9 SWAP2 SWAP1 PUSH2 0xB26 JUMP JUMPDEST PUSH1 0x40 MLOAD DUP1 SWAP2 SUB SWAP1 RETURN JUMPDEST PUSH2 0x1DA PUSH2 0x687 JUMP JUMPDEST PUSH1 0x40 MLOAD PUSH2 0x1E7 SWAP2 SWAP1 PUSH2 0x933 JUMP JUMPDEST PUSH1 0x40 MLOAD DUP1 SWAP2 SUB SWAP1 RETURN JUMPDEST PUSH2 0x20A PUSH1 0x4 DUP1 CALLDATASIZE SUB DUP2 ADD SWAP1 PUSH2 0x205 SWAP2 SWAP1 PUSH2 0xAD0 JUMP JUMPDEST PUSH2 0x68D JUMP JUMPDEST PUSH1 0x40 MLOAD PUSH2 0x217 SWAP2 SWAP1 PUSH2 0xB26 JUMP JUMPDEST PUSH1 0x40 MLOAD DUP1 SWAP2 SUB SWAP1 RETURN JUMPDEST PUSH2 0x228 PUSH2 0x6C2 JUMP JUMPDEST PUSH1 0x40 MLOAD PUSH2 0x239 SWAP6 SWAP5 SWAP4 SWAP3 SWAP2 SWAP1 PUSH2 0xB3F JUMP JUMPDEST PUSH1 0x40 MLOAD DUP1 SWAP2 SUB SWAP1 RETURN JUMPDEST PUSH1 0x4 DUP1 SLOAD PUSH2 0x24F SWAP1 PUSH2 0xBCB JUMP JUMPDEST DUP1 PUSH1 0x1F ADD PUSH1 0x20 DUP1 SWAP2 DIV MUL PUSH1 0x20 ADD PUSH1 0x40 MLOAD SWAP1 DUP2 ADD PUSH1 0x40 MSTORE DUP1 SWAP3 SWAP2 SWAP1 DUP2 DUP2 MSTORE PUSH1 0x20 ADD DUP3 DUP1 SLOAD PUSH2 0x27B SWAP1 PUSH2 0xBCB JUMP JUMPDEST DUP1 ISZERO PUSH2 0x2C6 JUMPI DUP1 PUSH1 0x1F LT PUSH2 0x29D JUMPI PUSH2 0x100 DUP1 DUP4 SLOAD DIV MUL DUP4 MSTORE SWAP2 PUSH1 0x20 ADD SWAP2 PUSH2 0x2C6 JUMP JUMPDEST DUP3 ADD SWAP2 SWAP1 PUSH0 MSTORE PUSH1 0x20 PUSH0 KECCAK256 SWAP1 JUMPDEST DUP2 SLOAD DUP2 MSTORE SWAP1 PUSH1 0x1 ADD SWAP1 PUSH1 0x20 ADD DUP1 DUP4 GT PUSH2 0x2A9 JUMPI DUP3 SWAP1 SUB PUSH1 0x1F AND DUP3 ADD SWAP2 JUMPDEST POP POP POP POP POP DUP2 JUMP JUMPDEST PUSH1 0x3 PUSH0 SWAP1 SLOAD SWAP1 PUSH2 0x100 EXP SWAP1 DIV PUSH20 0xFFFFFFFFFFFFFFFFFFFFFFFFFFFFFFFFFFFFFFFF AND PUSH20 0xFFFFFFFFFFFFFFFFFFFFFFFFFFFFFFFFFFFFFFFF AND CALLER PUSH20 0xFFFFFFFFFFFFFFFFFFFFFFFFFFFFFFFFFFFFFFFF AND EQ PUSH2 0x35D JUMPI PUSH1 0x40 MLOAD PUSH32 0x8C379A000000000000000000000000000000000000000000000000000000000 DUP2 MSTORE PUSH1 0x4 ADD PUSH2 0x354 SWAP1 PUSH2 0xC6B JUMP JUMPDEST PUSH1 0x40 MLOAD DUP1 SWAP2 SUB SWAP1 REVERT JUMPDEST DUP1 PUSH1 0x3 PUSH1 0x14 PUSH2 0x100 EXP DUP2 SLOAD DUP2 PUSH1 0xFF MUL NOT AND SWAP1 DUP4 ISZERO ISZERO MUL OR SWAP1 SSTORE POP POP JUMP JUMPDEST PUSH1 0x6 SLOAD DUP2 JUMP JUMPDEST PUSH1 0x1 DUP1 SLOAD PUSH2 0x38D SWAP1 PUSH2 0xBCB JUMP JUMPDEST DUP1 PUSH1 0x1F ADD PUSH1 0x20 DUP1 SWAP2 DIV MUL PUSH1 0x20 ADD PUSH1 0x40 MLOAD SWAP1 DUP2 ADD PUSH1 0x40 MSTORE DUP1 SWAP3 SWAP2 SWAP1 DUP2 DUP2 MSTORE PUSH1 0x20 ADD DUP3 DUP1 SLOAD PUSH2 0x3B9 SWAP1 PUSH2 0xBCB JUMP JUMPDEST DUP1 ISZERO PUSH2 0x404 JUMPI DUP1 PUSH1 0x1F LT PUSH2 0x3DB JUMPI PUSH2 0x100 DUP1 DUP4 SLOAD DIV MUL DUP4 MSTORE SWAP2 PUSH1 0x20 ADD SWAP2 PUSH2 0x404 JUMP JUMPDEST DUP3 ADD SWAP2 SWAP1 PUSH0 MSTORE PUSH1 0x20 PUSH0 KECCAK256 SWAP1 JUMPDEST DUP2 SLOAD DUP2 MSTORE SWAP1 PUSH1 0x1 ADD SWAP1 PUSH1 0x20 ADD DUP1 DUP4 GT PUSH2 0x3E7 JUMPI DUP3 SWAP1 SUB PUSH1 0x1F AND DUP3 ADD SWAP2 JUMPDEST POP POP POP POP POP DUP2 JUMP JUMPDEST PUSH1 0x3 PUSH0 SWAP1 SLOAD SWAP1 PUSH2 0x100 EXP SWAP1 DIV PUSH20 0xFFFFFFFFFFFFFFFFFFFFFFFFFFFFFFFFFFFFFFFF AND DUP2 JUMP JUMPDEST PUSH1 0x3 PUSH0 SWAP1 SLOAD SWAP1 PUSH2 0x100 EXP SWAP1 DIV PUSH20 0xFFFFFFFFFFFFFFFFFFFFFFFFFFFFFFFFFFFFFFFF AND PUSH20 0xFFFFFFFFFFFFFFFFFFFFFFFFFFFFFFFFFFFFFFFF AND CALLER PUSH20 0xFFFFFFFFFFFFFFFFFFFFFFFFFFFFFFFFFFFFFFFF AND EQ PUSH2 0x4C0 JUMPI PUSH1 0x40 MLOAD PUSH32 0x8C379A000000000000000000000000000000000000000000000000000000000 DUP2 MSTORE PUSH1 0x4 ADD PUSH2 0x4B7 SWAP1 PUSH2 0xC6B JUMP JUMPDEST PUSH1 0x40 MLOAD DUP1 SWAP2 SUB SWAP1 REVERT JUMPDEST PUSH1 0x3 PUSH1 0x14 SWAP1 SLOAD SWAP1 PUSH2 0x100 EXP SWAP1 DIV PUSH1 0xFF AND ISZERO PUSH2 0x510 JUMPI PUSH1 0x40 MLOAD PUSH32 0x8C379A000000000000000000000000000000000000000000000000000000000 DUP2 MSTORE PUSH1 0x4 ADD PUSH2 0x507 SWAP1 PUSH2 0xCD3 JUMP JUMPDEST PUSH1 0x40 MLOAD DUP1 SWAP2 SUB SWAP1 REVERT JUMPDEST PUSH1 0x1 PUSH1 0x5 DUP3 PUSH1 0x40 MLOAD PUSH2 0x522 SWAP2 SWAP1 PUSH2 0xD2B JUMP JUMPDEST SWAP1 DUP2 MSTORE PUSH1 0x20 ADD PUSH1 0x40 MLOAD DUP1 SWAP2 SUB SWAP1 KECCAK256 PUSH0 PUSH2 0x100 EXP DUP2 SLOAD DUP2 PUSH1 0xFF MUL NOT AND SWAP1 DUP4 ISZERO ISZERO MUL OR SWAP1 SSTORE POP PUSH1 0x1 PUSH1 0x6 PUSH0 DUP3 DUP3 SLOAD PUSH2 0x558 SWAP2 SWAP1 PUSH2 0xD6E JUMP JUMPDEST SWAP3 POP POP DUP2 SWAP1 SSTORE POP POP JUMP JUMPDEST PUSH1 0x60 PUSH0 DUP1 SLOAD PUSH2 0x570 SWAP1 PUSH2 0xBCB JUMP JUMPDEST DUP1 PUSH1 0x1F ADD PUSH1 0x20 DUP1 SWAP2 DIV MUL PUSH1 0x20 ADD PUSH1 0x40 MLOAD SWAP1 DUP2 ADD PUSH1 0x40 MSTORE DUP1 SWAP3 SWAP2 SWAP1 DUP2 DUP2 MSTORE PUSH1 0x20 ADD DUP3 DUP1 SLOAD PUSH2 0x59C SWAP1 PUSH2 0xBCB JUMP JUMPDEST DUP1 ISZERO PUSH2 0x5E7 JUMPI DUP1 PUSH1 0x1F LT PUSH2 0x5BE JUMPI PUSH2 0x100 DUP1 DUP4 SLOAD DIV MUL DUP4 MSTORE SWAP2 PUSH1 0x20 ADD SWAP2 PUSH2 0x5E7 JUMP JUMPDEST DUP3 ADD SWAP2 SWAP1 PUSH0 MSTORE PUSH1 0x20 PUSH0 KECCAK256 SWAP1 JUMPDEST DUP2 SLOAD DUP2 MSTORE SWAP1 PUSH1 0x1 ADD SWAP1 PUSH1 0x20 ADD DUP1 DUP4 GT PUSH2 0x5CA JUMPI DUP3 SWAP1 SUB PUSH1 0x1F AND DUP3 ADD SWAP2 JUMPDEST POP POP POP POP POP SWAP1 POP SWAP1 JUMP JUMPDEST PUSH1 0x3 PUSH1 0x14 SWAP1 SLOAD SWAP1 PUSH2 0x100 EXP SWAP1 DIV PUSH1 0xFF AND DUP2 JUMP JUMPDEST PUSH0 PUSH1 0x3 PUSH1 0x14 SWAP1 SLOAD SWAP1 PUSH2 0x100 EXP SWAP1 DIV PUSH1 0xFF AND ISZERO PUSH2 0x655 JUMPI PUSH1 0x40 MLOAD PUSH32 0x8C379A000000000000000000000000000000000000000000000000000000000 DUP2 MSTORE PUSH1 0x4 ADD PUSH2 0x64C SWAP1 PUSH2 0xCD3 JUMP JUMPDEST PUSH1 0x40 MLOAD DUP1 SWAP2 SUB SWAP1 REVERT JUMPDEST PUSH1 0x5 DUP3 PUSH1 0x40 MLOAD PUSH2 0x665 SWAP2 SWAP1 PUSH2 0xD2B JUMP JUMPDEST SWAP1 DUP2 MSTORE PUSH1 0x20 ADD PUSH1 0x40 MLOAD DUP1 SWAP2 SUB SWAP1 KECCAK256 PUSH0 SWAP1 SLOAD SWAP1 PUSH2 0x100 EXP SWAP1 DIV PUSH1 0xFF AND SWAP1 POP SWAP2 SWAP1 POP JUMP JUMPDEST PUSH1 0x2 SLOAD DUP2 JUMP JUMPDEST PUSH1 0x5 DUP2 DUP1 MLOAD PUSH1 0x20 DUP2 ADD DUP3 ADD DUP1 MLOAD DUP5 DUP3 MSTORE PUSH1 0x20 DUP4 ADD PUSH1 0x20 DUP6 ADD KECCAK256 DUP2 DUP4 MSTORE DUP1 SWAP6 POP POP POP POP POP POP PUSH0 SWAP2 POP SLOAD SWAP1 PUSH2 0x100 EXP SWAP1 DIV PUSH1 0xFF AND DUP2 JUMP JUMPDEST PUSH1 0x60 PUSH0 PUSH0 PUSH1 0x60 PUSH0 PUSH1 0x1 PUSH1 0x2 SLOAD PUSH1 0x3 PUSH0 SWAP1 SLOAD SWAP1 PUSH2 0x100 EXP SWAP1 DIV PUSH20 0xFFFFFFFFFFFFFFFFFFFFFFFFFFFFFFFFFFFFFFFF AND PUSH1 0x4 PUSH1 0x6 SLOAD DUP5 DUP1 SLOAD PUSH2 0x701 SWAP1 PUSH2 0xBCB JUMP JUMPDEST DUP1 PUSH1 0x1F ADD PUSH1 0x20 DUP1 SWAP2 DIV MUL PUSH1 0x20 ADD PUSH1 0x40 MLOAD SWAP1 DUP2 ADD PUSH1 0x40 MSTORE DUP1 SWAP3 SWAP2 SWAP1 DUP2 DUP2 MSTORE PUSH1 0x20 ADD DUP3 DUP1 SLOAD PUSH2 0x72D SWAP1 PUSH2 0xBCB JUMP JUMPDEST DUP1 ISZERO PUSH2 0x778 JUMPI DUP1 PUSH1 0x1F LT PUSH2 0x74F JUMPI PUSH2 0x100 DUP1 DUP4 SLOAD DIV MUL DUP4 MSTORE SWAP2 PUSH1 0x20 ADD SWAP2 PUSH2 0x778 JUMP JUMPDEST DUP3 ADD SWAP2 SWAP1 PUSH0 MSTORE PUSH1 0x20 PUSH0 KECCAK256 SWAP1 JUMPDEST DUP2 SLOAD DUP2 MSTORE SWAP1 PUSH1 0x1 ADD SWAP1 PUSH1 0x20 ADD DUP1 DUP4 GT PUSH2 0x75B JUMPI DUP3 SWAP1 SUB PUSH1 0x1F AND DUP3 ADD SWAP2 JUMPDEST POP POP POP POP POP SWAP5 POP DUP2 DUP1 SLOAD PUSH2 0x78B SWAP1 PUSH2 0xBCB JUMP JUMPDEST DUP1 PUSH1 0x1F ADD PUSH1 0x20 DUP1 SWAP2 DIV MUL PUSH1 0x20 ADD PUSH1 0x40 MLOAD SWAP1 DUP2 ADD PUSH1 0x40 MSTORE DUP1 SWAP3 SWAP2 SWAP1 DUP2 DUP2 MSTORE PUSH1 0x20 ADD DUP3 DUP1 SLOAD PUSH2 0x7B7 SWAP1 PUSH2 0xBCB JUMP JUMPDEST DUP1 ISZERO PUSH2 0x802 JUMPI DUP1 PUSH1 0x1F LT PUSH2 0x7D9 JUMPI PUSH2 0x100 DUP1 DUP4 SLOAD DIV MUL DUP4 MSTORE SWAP2 PUSH1 0x20 ADD SWAP2 PUSH2 0x802 JUMP JUMPDEST DUP3 ADD SWAP2 SWAP1 PUSH0 MSTORE PUSH1 0x20 PUSH0 KECCAK256 SWAP1 JUMPDEST DUP2 SLOAD DUP2 MSTORE SWAP1 PUSH1 0x1 ADD SWAP1 PUSH1 0x20 ADD DUP1 DUP4 GT PUSH2 0x7E5 JUMPI DUP3 SWAP1 SUB PUSH1 0x1F AND DUP3 ADD SWAP2 JUMPDEST POP POP POP POP POP SWAP2 POP SWAP5 POP SWAP5 POP SWAP5 POP SWAP5 POP SWAP5 POP SWAP1 SWAP2 SWAP3 SWAP4 SWAP5 JUMP JUMPDEST PUSH0 DUP2 MLOAD SWAP1 POP SWAP2 SWAP1 POP JUMP JUMPDEST PUSH0 DUP3 DUP3 MSTORE PUSH1 0x20 DUP3 ADD SWAP1 POP SWAP3 SWAP2 POP POP JUMP JUMPDEST DUP3 DUP2 DUP4 MCOPY PUSH0 DUP4 DUP4 ADD MSTORE POP POP POP JUMP JUMPDEST PUSH0 PUSH1 0x1F NOT PUSH1 0x1F DUP4 ADD AND SWAP1 POP SWAP2 SWAP1 POP JUMP JUMPDEST PUSH0 PUSH2 0x85C DUP3 PUSH2 0x81A JUMP JUMPDEST PUSH2 0x866 DUP2 DUP6 PUSH2 0x824 JUMP JUMPDEST SWAP4 POP PUSH2 0x876 DUP2 DUP6 PUSH1 0x20 DUP7 ADD PUSH2 0x834 JUMP JUMPDEST PUSH2 0x87F DUP2 PUSH2 0x842 JUMP JUMPDEST DUP5 ADD SWAP2 POP POP SWAP3 SWAP2 POP POP JUMP JUMPDEST PUSH0 PUSH1 0x20 DUP3 ADD SWAP1 POP DUP2 DUP2 SUB PUSH0 DUP4 ADD MSTORE PUSH2 0x8A2 DUP2 DUP5 PUSH2 0x852 JUMP JUMPDEST SWAP1 POP SWAP3 SWAP2 POP POP JUMP JUMPDEST PUSH0 PUSH1 0x40 MLOAD SWAP1 POP SWAP1 JUMP JUMPDEST PUSH0 PUSH0 REVERT JUMPDEST PUSH0 PUSH0 REVERT JUMPDEST PUSH0 DUP2 ISZERO ISZERO SWAP1 POP SWAP2 SWAP1 POP JUMP JUMPDEST PUSH2 0x8CF DUP2 PUSH2 0x8BB JUMP JUMPDEST DUP2 EQ PUSH2 0x8D9 JUMPI PUSH0 PUSH0 REVERT JUMPDEST POP JUMP JUMPDEST PUSH0 DUP2 CALLDATALOAD SWAP1 POP PUSH2 0x8EA DUP2 PUSH2 0x8C6 JUMP JUMPDEST SWAP3 SWAP2 POP POP JUMP JUMPDEST PUSH0 PUSH1 0x20 DUP3 DUP5 SUB SLT ISZERO PUSH2 0x905 JUMPI PUSH2 0x904 PUSH2 0x8B3 JUMP JUMPDEST JUMPDEST PUSH0 PUSH2 0x912 DUP5 DUP3 DUP6 ADD PUSH2 0x8DC JUMP JUMPDEST SWAP2 POP POP SWAP3 SWAP2 POP POP JUMP JUMPDEST PUSH0 DUP2 SWAP1 POP SWAP2 SWAP1 POP JUMP JUMPDEST PUSH2 0x92D DUP2 PUSH2 0x91B JUMP JUMPDEST DUP3 MSTORE POP POP JUMP JUMPDEST PUSH0 PUSH1 0x20 DUP3 ADD SWAP1 POP PUSH2 0x946 PUSH0 DUP4 ADD DUP5 PUSH2 0x924 JUMP JUMPDEST SWAP3 SWAP2 POP POP JUMP JUMPDEST PUSH0 PUSH20 0xFFFFFFFFFFFFFFFFFFFFFFFFFFFFFFFFFFFFFFFF DUP3 AND SWAP1 POP SWAP2 SWAP1 POP JUMP JUMPDEST PUSH0 PUSH2 0x975 DUP3 PUSH2 0x94C JUMP JUMPDEST SWAP1 POP SWAP2 SWAP1 POP JUMP JUMPDEST PUSH2 0x985 DUP2 PUSH2 0x96B JUMP JUMPDEST DUP3 MSTORE POP POP JUMP JUMPDEST PUSH0 PUSH1 0x20 DUP3 ADD SWAP1 POP PUSH2 0x99E PUSH0 DUP4 ADD DUP5 PUSH2 0x97C JUMP JUMPDEST SWAP3 SWAP2 POP POP JUMP JUMPDEST PUSH0 PUSH0 REVERT JUMPDEST PUSH0 PUSH0 REVERT JUMPDEST PUSH32 0x4E487B7100000000000000000000000000000000000000000000000000000000 PUSH0 MSTORE PUSH1 0x41 PUSH1 0x4 MSTORE PUSH1 0x24 PUSH0 REVERT JUMPDEST PUSH2 0x9E2 DUP3 PUSH2 0x842 JUMP JUMPDEST DUP2 ADD DUP2 DUP2 LT PUSH8 0xFFFFFFFFFFFFFFFF DUP3 GT OR ISZERO PUSH2 0xA01 JUMPI PUSH2 0xA00 PUSH2 0x9AC JUMP JUMPDEST JUMPDEST DUP1 PUSH1 0x40 MSTORE POP POP POP JUMP JUMPDEST PUSH0 PUSH2 0xA13 PUSH2 0x8AA JUMP JUMPDEST SWAP1 POP PUSH2 0xA1F DUP3 DUP3 PUSH2 0x9D9 JUMP JUMPDEST SWAP2 SWAP1 POP JUMP JUMPDEST PUSH0 PUSH8 0xFFFFFFFFFFFFFFFF DUP3 GT ISZERO PUSH2 0xA3E JUMPI PUSH2 0xA3D PUSH2 0x9AC JUMP JUMPDEST JUMPDEST PUSH2 0xA47 DUP3 PUSH2 0x842 JUMP JUMPDEST SWAP1 POP PUSH1 0x20 DUP2 ADD SWAP1 POP SWAP2 SWAP1 POP JUMP JUMPDEST DUP3 DUP2 DUP4 CALLDATACOPY PUSH0 DUP4 DUP4 ADD MSTORE POP POP POP JUMP JUMPDEST PUSH0 PUSH2 0xA74 PUSH2 0xA6F DUP5 PUSH2 0xA24 JUMP JUMPDEST PUSH2 0xA0A JUMP JUMPDEST SWAP1 POP DUP3 DUP2 MSTORE PUSH1 0x20 DUP2 ADD DUP5 DUP5 DUP5 ADD GT ISZERO PUSH2 0xA90 JUMPI PUSH2 0xA8F PUSH2 0x9A8 JUMP JUMPDEST JUMPDEST PUSH2 0xA9B DUP5 DUP3 DUP6 PUSH2 0xA54 JUMP JUMPDEST POP SWAP4 SWAP3 POP POP POP JUMP JUMPDEST PUSH0 DUP3 PUSH1 0x1F DUP4 ADD SLT PUSH2 0xAB7 JUMPI PUSH2 0xAB6 PUSH2 0x9A4 JUMP JUMPDEST JUMPDEST DUP2 CALLDATALOAD PUSH2 0xAC7 DUP5 DUP3 PUSH1 0x20 DUP7 ADD PUSH2 0xA62 JUMP JUMPDEST SWAP2 POP POP SWAP3 SWAP2 POP POP JUMP JUMPDEST PUSH0 PUSH1 0x20 DUP3 DUP5 SUB SLT ISZERO PUSH2 0xAE5 JUMPI PUSH2 0xAE4 PUSH2 0x8B3 JUMP JUMPDEST JUMPDEST PUSH0 DUP3 ADD CALLDATALOAD PUSH8 0xFFFFFFFFFFFFFFFF DUP2 GT ISZERO PUSH2 0xB02 JUMPI PUSH2 0xB01 PUSH2 0x8B7 JUMP JUMPDEST JUMPDEST PUSH2 0xB0E DUP5 DUP3 DUP6 ADD PUSH2 0xAA3 JUMP JUMPDEST SWAP2 POP POP SWAP3 SWAP2 POP POP JUMP JUMPDEST PUSH2 0xB20 DUP2 PUSH2 0x8BB JUMP JUMPDEST DUP3 MSTORE POP POP JUMP JUMPDEST PUSH0 PUSH1 0x20 DUP3 ADD SWAP1 POP PUSH2 0xB39 PUSH0 DUP4 ADD DUP5 PUSH2 0xB17 JUMP JUMPDEST SWAP3 SWAP2 POP POP JUMP JUMPDEST PUSH0 PUSH1 0xA0 DUP3 ADD SWAP1 POP DUP2 DUP2 SUB PUSH0 DUP4 ADD MSTORE PUSH2 0xB57 DUP2 DUP9 PUSH2 0x852 JUMP JUMPDEST SWAP1 POP PUSH2 0xB66 PUSH1 0x20 DUP4 ADD DUP8 PUSH2 0x924 JUMP JUMPDEST PUSH2 0xB73 PUSH1 0x40 DUP4 ADD DUP7 PUSH2 0x97C JUMP JUMPDEST DUP2 DUP2 SUB PUSH1 0x60 DUP4 ADD MSTORE PUSH2 0xB85 DUP2 DUP6 PUSH2 0x852 JUMP JUMPDEST SWAP1 POP PUSH2 0xB94 PUSH1 0x80 DUP4 ADD DUP5 PUSH2 0x924 JUMP JUMPDEST SWAP7 SWAP6 POP POP POP POP POP POP JUMP JUMPDEST PUSH32 0x4E487B7100000000000000000000000000000000000000000000000000000000 PUSH0 MSTORE PUSH1 0x22 PUSH1 0x4 MSTORE PUSH1 0x24 PUSH0 REVERT JUMPDEST PUSH0 PUSH1 0x2 DUP3 DIV SWAP1 POP PUSH1 0x1 DUP3 AND DUP1 PUSH2 0xBE2 JUMPI PUSH1 0x7F DUP3 AND SWAP2 POP JUMPDEST PUSH1 0x20 DUP3 LT DUP2 SUB PUSH2 0xBF5 JUMPI PUSH2 0xBF4 PUSH2 0xB9E JUMP JUMPDEST JUMPDEST POP SWAP2 SWAP1 POP JUMP JUMPDEST PUSH32 0x4F6E6C7920746865206D616E616765722063616E2063616C6C20746869732066 PUSH0 DUP3 ADD MSTORE PUSH32 0x756E6374696F6E00000000000000000000000000000000000000000000000000 PUSH1 0x20 DUP3 ADD MSTORE POP JUMP JUMPDEST PUSH0 PUSH2 0xC55 PUSH1 0x27 DUP4 PUSH2 0x824 JUMP JUMPDEST SWAP2 POP PUSH2 0xC60 DUP3 PUSH2 0xBFB JUMP JUMPDEST PUSH1 0x40 DUP3 ADD SWAP1 POP SWAP2 SWAP1 POP JUMP JUMPDEST PUSH0 PUSH1 0x20 DUP3 ADD SWAP1 POP DUP2 DUP2 SUB PUSH0 DUP4 ADD MSTORE PUSH2 0xC82 DUP2 PUSH2 0xC49 JUMP JUMPDEST SWAP1 POP SWAP2 SWAP1 POP JUMP JUMPDEST PUSH32 0x436F6E747261637420686173206265656E2064656C6574656400000000000000 PUSH0 DUP3 ADD MSTORE POP JUMP JUMPDEST PUSH0 PUSH2 0xCBD PUSH1 0x19 DUP4 PUSH2 0x824 JUMP JUMPDEST SWAP2 POP PUSH2 0xCC8 DUP3 PUSH2 0xC89 JUMP JUMPDEST PUSH1 0x20 DUP3 ADD SWAP1 POP SWAP2 SWAP1 POP JUMP JUMPDEST PUSH0 PUSH1 0x20 DUP3 ADD SWAP1 POP DUP2 DUP2 SUB PUSH0 DUP4 ADD MSTORE PUSH2 0xCEA DUP2 PUSH2 0xCB1 JUMP JUMPDEST SWAP1 POP SWAP2 SWAP1 POP JUMP JUMPDEST PUSH0 DUP2 SWAP1 POP SWAP3 SWAP2 POP POP JUMP JUMPDEST PUSH0 PUSH2 0xD05 DUP3 PUSH2 0x81A JUMP JUMPDEST PUSH2 0xD0F DUP2 DUP6 PUSH2 0xCF1 JUMP JUMPDEST SWAP4 POP PUSH2 0xD1F DUP2 DUP6 PUSH1 0x20 DUP7 ADD PUSH2 0x834 JUMP JUMPDEST DUP1 DUP5 ADD SWAP2 POP POP SWAP3 SWAP2 POP POP JUMP JUMPDEST PUSH0 PUSH2 0xD36 DUP3 DUP5 PUSH2 0xCFB JUMP JUMPDEST SWAP2 POP DUP2 SWAP1 POP SWAP3 SWAP2 POP POP JUMP JUMPDEST PUSH32 0x4E487B7100000000000000000000000000000000000000000000000000000000 PUSH0 MSTORE PUSH1 0x11 PUSH1 0x4 MSTORE PUSH1 0x24 PUSH0 REVERT JUMPDEST PUSH0 PUSH2 0xD78 DUP3 PUSH2 0x91B JUMP JUMPDEST SWAP2 POP PUSH2 0xD83 DUP4 PUSH2 0x91B JUMP JUMPDEST SWAP3 POP DUP3 DUP3 ADD SWAP1 POP DUP1 DUP3 GT ISZERO PUSH2 0xD9B JUMPI PUSH2 0xD9A PUSH2 0xD41 JUMP JUMPDEST JUMPDEST SWAP3 SWAP2 POP POP JUMP INVALID LOG2 PUSH5 0x6970667358 0x22 SLT KECCAK256 0xF7 PUSH32 0xEA3B3BDF6C6ABACC640E6D0A7A9CE01113D074A42BB2A4B13F33EDE523E76473 PUSH16 0x6C634300081B00330000000000000000 "}}}